:02000000B42921
:02000800EE28E0
:1000100021001A1B092821009901783099009913B1
:1000200021009A1A1128210000309E002300003080
:100030008C00210000308C00270000309100270048
:1000400000309200270000308C00260000308C0029
:10005000200000308C00210000308D002300003093
:100060008D00240000308D00250000308D0026001A
:1000700000308D00270000309400270000309500EC
:10008000270000309600200000308D002200003054
:100090008E00210018308E00240000308E002500D4
:1000A00018308E00260000308E0027008E012000C0
:1000B00000308E00270000309D00270000309E0099
:1000C0002100003095002000C0308B0021000B3053
:1000D0009100210000309200200030309800200074
:1000E0009901200000309100200000309A0020008B
:1000F00000309C00200064309B00200005309C00F4
:10010000080021008E150E162400203092002400D5
:1001100036309500240009309600240020309700E6
:100120002400403094002400FE3093002000F601AB
:1001300020008D140800240015122400941AA5280C
:10014000240011082000F601DC282000003076028F
:1001500020000319BE282000013076022000031978
:10016000C32820000230760220000319C82820008E
:100170000330760220000319CD28DC282400110862
:100180002000F200D928240011082000F300D9280B
:10019000240011082000F400D928240011082000B0
:1001A000F5002000771420009701960120008C11A3
:1001B000D9282000F60ADC28240095132400151302
:1001C00024001108240015162000911108002000B9
:1001D00077181521262124001516E728F9000808AC
:1001E000F800200091199B2020001118A92120005F
:1001F00091182B21FB2820000030910078088800FE
:100200007908090020008030FA0020008030FB00CF
:10021000080020000030A1002000C830A00020000D
:100220000F30A30020000C140800200072082000EA
:10023000FA00200073082000FB0020007408200052
:10024000FC00200075082000FD00080020002208A6
:1002500020008D0008002000A10A200022082000B4
:100260002106200003194A21200021082000220233
:100270002000031C4A212000230820002106200022
:100280000319512120002008200021062000031915
:100290005721080020000C108C10200003110310BF
:1002A000080020000C11200003110310080020009A
:1002B0000C148C140C1520000311031020000030C6
:1002C000A10020008C196929662908006D217B2175
:1002D000652920000F30A20065292000A20120001E
:1002E000FF30FA067A082000A200A20CA20CA20C91
:1002F0001F30A205080020007C1885212000FC1971
:100300008A212000FC188F2108002000231C9A213C
:10031000A30308002000231A9321A30A0800200049
:100320000F30A300080020001A3023062000031914
:10033000A521080020000030230620000319A12178
:10034000080020000130A300080020001930A3009D
:1003500008002000A40BB1290230A40020008C1555
:10036000B129200011100800082081200221092154
:0603700020001814E7282C
:020000040001F9
:04000E00E401FF18F2
:00000001FF
