:020000040000FA
:020000000528D1
:040002000034003492
:080008000E28A8216920230045
:100010001D1620001C1520008B175E282000911A49
:100020002021200091181820200091129110090021
:100030002000AF0A10302F02200003192C282000C6
:10004000B00A033030022000031927282F2820008F
:10005000B0012000AE142F280F30AF003020080070
:100060000800200047082000C000200022082000CF
:10007000C200200023082000C30020002408200024
:10008000C400200025082000C50088202000490861
:100090002000C000200026082000C2002000270801
:1000A0002000C300200028082000C40020002908E8
:1000B0002000C50088202000AE10080020000D0898
:1000C0002000A10020002E1872212000AE1831203F
:0200D0005E28A8
:0E00D20020001030C70020001130C8002000B0
:1000E0002030C90020002130CA0021008E150E16D4
:1000F000240027309200240028309500240000308E
:1001000096002400083097002400A03094000800D6
:1001100016212400161416188B28200040082400ED
:10012000910024001418912816212400161B102970
:100130002000420824009100240014189C28162155
:100140002400161B102920004308240091002400DD
:100150001418A72816212400161B10292000440873
:100160002400910024001418B22816212400161B24
:100170001029200045082400910024001418BD28EF
:1001800016212400161B1029240016151619C6283E
:10019000003008001621240016141618CD2820005F
:1001A00040082400910024001418D32816212400AC
:1001B000161B1029200091112000420824009100F4
:1001C00024001418E02816212400161B10291621DB
:1001D000240016141618EA28200091112000410866
:1001E0002400910024001418F22816212400161B64
:1001F00010292400961520009111240011081621C1
:10020000240096161616161A0329240096112400A7
:10021000161516190929240011082000C600080027
:100220002400161516191229FF30080024001F306B
:1002300096052000031D1629240014191C29080006
:1002400020000030200203193B290130200203194D
:1002500046290230200203195429033020020319D1
:100260005B2904302002031962290530200203199A
:100270006929A00171292430230019020319432997
:100280002000A00171292000A00A71292000210866
:100290002300190203194F292000A0017129200011
:1002A000A00A2000AF017129230019082000AA002C
:1002B0002000A00A7129230019082000AB002000AB
:1002C000A00A7129230019082000AC002000A00A10
:1002D0007129230019082000AD0020002E142000F1
:1002E000A001080020004A302A02031980296A3040
:1002F0002A0203198D2942302A0203199A29A229B8
:1003000020002B082000A20020002C082000A300C1
:1003100020002D082000A400A22920002B08200086
:10032000A50020002C082000A60020002D08200099
:10033000A700A22920002B082000A80020002C08DC
:100340002000A900AA01AB01AC01AD012E100800EC
:1003500020000D082000A100A0018030A200A30011
:10036000A400A500A600A700A801A801AE01AF0146
:10037000B0012100783099002A0000309A00210055
:1003800095012500930125009A0126009301200084
:100390009801200000309C002000FA309B002200D1
:1003A00000309D00220001309C0023008C012400BD
:1003B0008C0125008C0126008C012700FF308C0069
:1003C0002200FF308C00210000308C002000FF3024
:1003D0008C0023008D0124008D0125008D01260055
:1003E0008D012700FF308D0022008D012100FF309C
:1003F0008D0023008E0124008E0125008E01260031
:100400008E012700FF308E0022008E012100FF3078
:100410008E0020008E150E16200040308B0021002B
:10042000223091002100003092002100131221009F
:1004300000309400230086309E00230080309D0011
:10044000230048309F00230022309B0023009C01A2
:020450000800A2
:020000040001F9
:02000E00E40903
:02001000FF1ED1
:00000001FF
