:020000040000FA
:020000000528D1
:040002000034003492
:080008000E284E21E121200029
:100010008B172000181420001C154A292000911964
:10002000F621200011184A202000911818200900FC
:10003000200000302702200003192028A7033828B9
:100040002000A60B3828C830A6002000A7002000FA
:100050002A082000A80020002B082000A90020006A
:1000600033082000B20020000C148C140C15472813
:100070002000A80B3D2820000C102000A90B4228CE
:1000800020008C102000B20B472820000C1120000B
:10009000911008002000A00B57280230A00020007B
:1000A0002D082000B3002000AA002000AB00200093
:1000B0001110080061207220AA202C212000C70105
:1000C0000800200042082000A20020004308200071
:1000D000A300200044082000A400200045082000C0
:1000E000A50008002000AF012000300820002402F5
:1000F000200003189228200031082000240220004C
:10010000031C952898282000300820002202200097
:1001100003189E2820003108200022022000031C22
:10012000A128A42820002F1483282000AF1483289E
:1001300020002F10AF102F11AF11832820002F1691
:10014000A9282000AF16A92820002F12AF122F13C4
:10015000AF130800200000302F0220000319E1280F
:10016000200011302F0220000319E828200022303F
:100170002F0220000319EF28200010302F0220004A
:1001800003190829200001302F022000031911292A
:10019000200012302F0220000319F6282000213001
:1001A0002F0220000319FF28200002302F02200018
:1001B00003191A29200020302F02200003192329B7
:1001C000E12820002D082000AA002000AB002B29E8
:1001D00020002C082000AA002000AB002B292000C2
:1001E0002E082000AA002000AB002B2920002C089C
:1001F0002000AB0020002E082000AA002B292000A0
:100200002C082000AA0020002E082000AB002B297B
:1002100020002D082000AA0020002C082000AB00A0
:100220002B2920002D082000AB0020002C082000E6
:10023000AA002B2920002D082000AB0020002E084A
:100240002000AA002B2920002D082000AA00200051
:100250002E082000AB0008002000300820002502F6
:10026000200003183B29200031082000250220002F
:10027000031C4029452920002C082000B3004929EF
:1002800020002E082000B300492920002D0820005E
:0C029000B3000800200047185A204A293B
:04029C00200002300C
:1002A000A00020008030A20020008030A3002000A9
:1002B0008030A40020008030A5002000C830A600B7
:1002C0002000C830A70020002830AC0020001D30DE
:1002D000AD0020001430AE0020002D082000B30037
:1002E0002000AA002000AB002000B2002000A800DF
:1002F0002000A90020000030AF002000C830B0006E
:1003000020002830B1002100783099002A00003008
:100310009A00210095012500930125009A012600ED
:10032000930120003030980020009901200009300E
:100330009C00200019309B00220041309D002200CB
:1003400001309C0023008C0124008C0125008C01CD
:1003500026008C012700FF308C0022008C01210038
:1003600000308C0023008D0124008D0125008D01BB
:1003700026008D012700FF308D0022008D01210015
:1003800000308D0023008E0124008E0125008E0197
:1003900026008E012700FF308E0022008E012100F2
:1003A00000308E00200040308B0021000B30910087
:1003B000210000309200210013122100003094002F
:0203C000080033
:0E03C20021008E150E1624001030920024002B
:1003D0003630950024000930960024002030970024
:1003E0002400403094002000C601080024001512AB
:1003F0002400941A002A240011082000C601342A7F
:1004000020000030460220000319192A2000013084
:100410004602200003191E2A200002304602200056
:100420000319232A20000330460220000319282A3A
:10043000342A240011082000C200322A24001108A6
:100440002000C300322A240011082000C400322AF0
:10045000240011082000C500200047142000970147
:100460009601322A2000C60A240015162000911198
:02047000080082
:020000040001F9
:02000E00E40903
:02001000FF1ED1
:00000001FF
