:020000009F2936
:02000800EE28E0
:1000100021001A1B092821009901783099009913B1
:1000200021009A1A1128210000309E002300003080
:100030008C00210000308C00270000309100270048
:1000400000309200270000308C00260000308C0029
:10005000200000308C00210000308D002300003093
:100060008D00240000308D00250000308D0026001A
:1000700000308D00270000309400270000309500EC
:10008000270000309600200000308D002200003054
:100090008E00210018308E00240000308E002500D4
:1000A00018308E00260000308E0027008E012000C0
:1000B00000308E00270000309D00270000309E0099
:1000C0002100003095002000C0308B0021000B3053
:1000D0009100210000309200200030309800200074
:1000E0009901200000309100200000309A0020008B
:1000F00000309C00200064309B00200005309C00F4
:10010000080021008E150E162400103092002400E5
:1001100036309500240009309600240020309700E6
:100120002400403094002400FE3093002000F601AB
:1001300020008D140800240015122400941AA5280C
:10014000240011082000F601DC282000003076028F
:1001500020000319BE282000013076022000031978
:10016000C32820000230760220000319C82820008E
:100170000330760220000319CD28DC282400110862
:100180002000F200D928240011082000F300D9280B
:10019000240011082000F400D928240011082000B0
:1001A000F5002000771420009701960120008C11A3
:1001B000D9282000F60ADC28240095132400151302
:1001C00024001108240015162000911108002000B9
:1001D00077181821292124001516E728F9000808A6
:1001E000F800200091199B20200011189421200074
:1001F00091183021FB2820000030910078088800F9
:100200007908090020008030FA0020008030FB00CF
:1002100020008030FC0020008030FD00080020001D
:100220000030A1002000C830A00020000C140800FD
:10023000200072082000FA00200073082000FB0054
:10024000200074082000FC00200075082000FD003C
:10025000080020001F30A205220820008D000800A1
:100260002000A10A200022082000210620000319F6
:10027000562120002108200022022000031C5621C4
:100280002000230820002106200003195C21200003
:100290002108200023022000031C5C2120002008EC
:1002A00020002106200003196221080020000C1004
:1002B000200003110310080020008C1020000311FF
:1002C0000310080020000C148C14200003110310EC
:1002D00020000030A10020008C197329702908002B
:1002E0007A2188216F2920000F30A20020000F30D2
:1002F000A3006F292000A2012000FF30FA067A082F
:100300002000A200A20CA20CA20C1F30A205080023
:100310002000A30120007C082000A300A30CA30C54
:10032000A30C1F30A30508002000A40B9C29023059
:10033000A40020008C159C29200011100800082022
:0C034000812002210F2120001814E72862
:020000040001F9
:04000E00E401FF18F2
:00000001FF
