:020000040000FA
:020000000528D1
:040002000034003492
:0800080010284C2023009E1675
:1000100020001C1520008B1721009D1425202F285F
:100020002000911817202000111B1D2009002520F9
:100030003021022120009110080021001D10822192
:1000400021009D1420001113080020000D0820003D
:10005000AE00080020000D0820008F0008002A20B4
:1000600020000C1A2B1420009018AB14200010193B
:100070002B1520000E18AB1520000C1B2B16200092
:100080008C1BAB1620008E182B1720000E19AB17F7
:0800900020008E1A2C142F2809
:0800980020001F30A000A101AF
:1000A0004A30A2006A30A3004230A4002430AD00E0
:1000B000B301A501A601A701A801A901AA01AB01ED
:1000C000AC01BA018130B4008530B5008930B6008A
:1000D0008D30B7009130B8009530B9002100FB3069
:1000E00099002A0000309A00210095012500930113
:1000F00025009A01260093012000980120007A3003
:100100009C002000FF309B002200F1309D00220067
:1001100000309C0024008C0125008C0126008C01FD
:100120002700FF308C0022008C012100FF308C0062
:1001300023002F308C0024008D0125008D01260026
:100140008D012700FF308D0022008D012100FF303E
:100150008D0023008D0124008E0125008E012600D4
:100160008E012700FF308E0022008E012100BF305B
:100170008E0023008E0124008F0125008F012600B0
:100180008F012700FF308F0022008F0121000030F7
:100190008F0023008F01240090012500900126008C
:1001A00090012700FF3090002200900121000F30C5
:1001B0009000230001309000230086309E00230031
:1001C00080309D00230048309F00230022309B0098
:1001D00023009C01210081309D00210050309E00B1
:1001E00021000F309F00200040308B002100423062
:1001F00091002100003092002100131221000030F4
:04020000940008005E
:0C02040023009E1C022920002D0823006E
:100210009A0023009E1C092920002E0823009A0022
:1002200023009E1C102920002F0823009A00230081
:100230009E1C17292000300823009A0023009E1CD2
:100240001E292000310823009A0023009E1C252926
:100250002000320823009A0023009E1C2C2908004D
:10026000200000303302200003194429200001300F
:1002700033022000031947292000023033022000F6
:1002800003194A29B3014D29B30A4E214D29B30A56
:100290005F214D29B30170214D290800200022085B
:1002A0002000AF00200025082000B0002000260814
:1002B0002000B100200027082000B2000800200024
:1002C00023082000AF00200028082000B0002000F4
:1002D00029082000B10020002A082000B2000800F0
:1002E000200024082000AF0020002B082000B000D0
:1002F00020002C082000B1002000B2012000AB013A
:04030000AC01080044
:0C030400200000303A0220000319AD294F
:10031000200001303A0220000319B72920000230E2
:100320003A0220000319C129200003303A022000BC
:100330000319CB29200004303A0220000319D529E3
:10034000200005303A0220000319DF292000BA01FD
:100350002000340821009D00E829BA0A2000350851
:1003600021009D0021001C082000A500E829BA0AF0
:100370002000360821009D0021001C082000A60056
:10038000E829BA0A2000370821009D0021001C0836
:100390002000A700E829BA0A2000380821009D00A3
:1003A00021001C082000A800E829BA0A200039080A
:1003B00021009D0021001C082000A900E829BA01A5
:1003C0002000340821009D0021001C082000AA0004
:0203D000080023
:020000040001F9
:02000E00E40903
:02001000FF1DD2
:00000001FF
